{
  "_format": "hh-sol-artifact-1",
  "contractName": "Messenger",
  "sourceName": "contracts/Messenger.sol",
  "abi": [
    {
      "anonymous": false,
      "inputs": [
        {
          "indexed": true,
          "internalType": "address",
          "name": "user",
          "type": "address"
        },
        {
          "indexed": true,
          "internalType": "address",
          "name": "contact",
          "type": "address"
        }
      ],
      "name": "ContactAdded",
      "type": "event"
    },
    {
      "anonymous": false,
      "inputs": [
        {
          "indexed": true,
          "internalType": "address",
          "name": "from",
          "type": "address"
        },
        {
          "indexed": true,
          "internalType": "address",
          "name": "to",
          "type": "address"
        },
        {
          "indexed": false,
          "internalType": "uint256",
          "name": "messageId",
          "type": "uint256"
        },
        {
          "indexed": false,
          "internalType": "uint256",
          "name": "timestamp",
          "type": "uint256"
        }
      ],
      "name": "MessageSent",
      "type": "event"
    },
    {
      "inputs": [],
      "name": "getContacts",
      "outputs": [
        {
          "internalType": "address[]",
          "name": "",
          "type": "address[]"
        }
      ],
      "stateMutability": "view",
      "type": "function"
    },
    {
      "inputs": [
        {
          "internalType": "address",
          "name": "_from",
          "type": "address"
        }
      ],
      "name": "getReceivedMessages",
      "outputs": [
        {
          "components": [
            {
              "internalType": "address",
              "name": "sender",
              "type": "address"
            },
            {
              "internalType": "address",
              "name": "recipient",
              "type": "address"
            },
            {
              "internalType": "string",
              "name": "content",
              "type": "string"
            },
            {
              "internalType": "uint256",
              "name": "timestamp",
              "type": "uint256"
            }
          ],
          "internalType": "struct Messenger.Message[]",
          "name": "",
          "type": "tuple[]"
        }
      ],
      "stateMutability": "view",
      "type": "function"
    },
    {
      "inputs": [
        {
          "internalType": "address",
          "name": "_to",
          "type": "address"
        }
      ],
      "name": "getSentMessages",
      "outputs": [
        {
          "components": [
            {
              "internalType": "address",
              "name": "sender",
              "type": "address"
            },
            {
              "internalType": "address",
              "name": "recipient",
              "type": "address"
            },
            {
              "internalType": "string",
              "name": "content",
              "type": "string"
            },
            {
              "internalType": "uint256",
              "name": "timestamp",
              "type": "uint256"
            }
          ],
          "internalType": "struct Messenger.Message[]",
          "name": "",
          "type": "tuple[]"
        }
      ],
      "stateMutability": "view",
      "type": "function"
    },
    {
      "inputs": [
        {
          "internalType": "address",
          "name": "_to",
          "type": "address"
        },
        {
          "internalType": "string",
          "name": "_content",
          "type": "string"
        }
      ],
      "name": "sendMessage",
      "outputs": [],
      "stateMutability": "nonpayable",
      "type": "function"
    }
  ],
  "bytecode": "0x6080604052348015600f57600080fd5b506119ef8061001f6000396000f3fe608060405234801561001057600080fd5b506004361061004c5760003560e01c806350b4d1fc146100515780638602def614610081578063db920b77146100b1578063de6f24bb146100cf575b600080fd5b61006b600480360381019061006691906110af565b6100eb565b60405161007891906112b9565b60405180910390f35b61009b600480360381019061009691906110af565b610530565b6040516100a891906112b9565b60405180910390f35b6100b9610975565b6040516100c6919061138a565b60405180910390f35b6100e960048036038101906100e49190611411565b610a40565b005b606060006100f98333610d2a565b9050600080600083815260200190815260200160002090506000805b8280549050811015610234576000600384838154811061013857610137611471565b5b90600052602060002001548154811061015457610153611471565b5b906000526020600020906004020190508673ffffffffffffffffffffffffffffffffffffffff168160000160009054906101000a900473ffffffffffffffffffffffffffffffffffffffff1673ffffffffffffffffffffffffffffffffffffffff1614801561021257503373ffffffffffffffffffffffffffffffffffffffff168160010160009054906101000a900473ffffffffffffffffffffffffffffffffffffffff1673ffffffffffffffffffffffffffffffffffffffff16145b15610226578280610222906114cf565b9350505b508080600101915050610115565b5060008167ffffffffffffffff81111561025157610250611517565b5b60405190808252806020026020018201604052801561028a57816020015b610277610ff3565b81526020019060019003908161026f5790505b5090506000805b848054905081101561052257600060038683815481106102b4576102b3611471565b5b9060005260206000200154815481106102d0576102cf611471565b5b906000526020600020906004020190508873ffffffffffffffffffffffffffffffffffffffff168160000160009054906101000a900473ffffffffffffffffffffffffffffffffffffffff1673ffffffffffffffffffffffffffffffffffffffff1614801561038e57503373ffffffffffffffffffffffffffffffffffffffff168160010160009054906101000a900473ffffffffffffffffffffffffffffffffffffffff1673ffffffffffffffffffffffffffffffffffffffff16145b1561051457806040518060800160405290816000820160009054906101000a900473ffffffffffffffffffffffffffffffffffffffff1673ffffffffffffffffffffffffffffffffffffffff1673ffffffffffffffffffffffffffffffffffffffff1681526020016001820160009054906101000a900473ffffffffffffffffffffffffffffffffffffffff1673ffffffffffffffffffffffffffffffffffffffff1673ffffffffffffffffffffffffffffffffffffffff16815260200160028201805461045b90611575565b80601f016020809104026020016040519081016040528092919081815260200182805461048790611575565b80156104d45780601f106104a9576101008083540402835291602001916104d4565b820191906000526020600020905b8154815290600101906020018083116104b757829003601f168201915b505050505081526020016003820154815250508484815181106104fa576104f9611471565b5b60200260200101819052508280610510906114cf565b9350505b508080600101915050610291565b508195505050505050919050565b6060600061053e3384610d2a565b9050600080600083815260200190815260200160002090506000805b8280549050811015610679576000600384838154811061057d5761057c611471565b5b90600052602060002001548154811061059957610598611471565b5b906000526020600020906004020190503373ffffffffffffffffffffffffffffffffffffffff168160000160009054906101000a900473ffffffffffffffffffffffffffffffffffffffff1673ffffffffffffffffffffffffffffffffffffffff1614801561065757508673ffffffffffffffffffffffffffffffffffffffff168160010160009054906101000a900473ffffffffffffffffffffffffffffffffffffffff1673ffffffffffffffffffffffffffffffffffffffff16145b1561066b578280610667906114cf565b9350505b50808060010191505061055a565b5060008167ffffffffffffffff81111561069657610695611517565b5b6040519080825280602002602001820160405280156106cf57816020015b6106bc610ff3565b8152602001906001900390816106b45790505b5090506000805b848054905081101561096757600060038683815481106106f9576106f8611471565b5b90600052602060002001548154811061071557610714611471565b5b906000526020600020906004020190503373ffffffffffffffffffffffffffffffffffffffff168160000160009054906101000a900473ffffffffffffffffffffffffffffffffffffffff1673ffffffffffffffffffffffffffffffffffffffff161480156107d357508873ffffffffffffffffffffffffffffffffffffffff168160010160009054906101000a900473ffffffffffffffffffffffffffffffffffffffff1673ffffffffffffffffffffffffffffffffffffffff16145b1561095957806040518060800160405290816000820160009054906101000a900473ffffffffffffffffffffffffffffffffffffffff1673ffffffffffffffffffffffffffffffffffffffff1673ffffffffffffffffffffffffffffffffffffffff1681526020016001820160009054906101000a900473ffffffffffffffffffffffffffffffffffffffff1673ffffffffffffffffffffffffffffffffffffffff1673ffffffffffffffffffffffffffffffffffffffff1681526020016002820180546108a090611575565b80601f01602080910402602001604051908101604052809291908181526020018280546108cc90611575565b80156109195780601f106108ee57610100808354040283529160200191610919565b820191906000526020600020905b8154815290600101906020018083116108fc57829003601f168201915b5050505050815260200160038201548152505084848151811061093f5761093e611471565b5b60200260200101819052508280610955906114cf565b9350505b5080806001019150506106d6565b508195505050505050919050565b6060600160003373ffffffffffffffffffffffffffffffffffffffff1673ffffffffffffffffffffffffffffffffffffffff168152602001908152602001600020805480602002602001604051908101604052809291908181526020018280548015610a3657602002820191906000526020600020905b8160009054906101000a900473ffffffffffffffffffffffffffffffffffffffff1673ffffffffffffffffffffffffffffffffffffffff16815260200190600101908083116109ec575b5050505050905090565b600073ffffffffffffffffffffffffffffffffffffffff168373ffffffffffffffffffffffffffffffffffffffff1603610aaf576040517f08c379a0000000000000000000000000000000000000000000000000000000008152600401610aa690611603565b60405180910390fd5b60008282905011610af5576040517f08c379a0000000000000000000000000000000000000000000000000000000008152600401610aec9061166f565b60405180910390fd5b60006003805490509050600360405180608001604052803373ffffffffffffffffffffffffffffffffffffffff1681526020018673ffffffffffffffffffffffffffffffffffffffff16815260200185858080601f016020809104026020016040519081016040528093929190818152602001838380828437600081840152601f19601f82011690508083019250505050505050815260200142815250908060018154018082558091505060019003906000526020600020906004020160009091909190915060008201518160000160006101000a81548173ffffffffffffffffffffffffffffffffffffffff021916908373ffffffffffffffffffffffffffffffffffffffff16021790555060208201518160010160006101000a81548173ffffffffffffffffffffffffffffffffffffffff021916908373ffffffffffffffffffffffffffffffffffffffff1602179055506040820151816002019081610c5e919061183b565b506060820151816003015550506000610c773386610d2a565b9050600080828152602001908152602001600020829080600181540180825580915050600190039060005260206000200160009091909190915055610cbc3386610dd1565b8473ffffffffffffffffffffffffffffffffffffffff163373ffffffffffffffffffffffffffffffffffffffff167ffa00ffce6051230b4361a25cb8c6cf798674abf770922e7c08373265c95fc0278442604051610d1b92919061191c565b60405180910390a35050505050565b60008173ffffffffffffffffffffffffffffffffffffffff168373ffffffffffffffffffffffffffffffffffffffff1610610d655781610d67565b825b8273ffffffffffffffffffffffffffffffffffffffff168473ffffffffffffffffffffffffffffffffffffffff1610610da05783610da2565b825b604051602001610db392919061198d565b60405160208183030381529060405280519060200120905092915050565b600260008373ffffffffffffffffffffffffffffffffffffffff1673ffffffffffffffffffffffffffffffffffffffff16815260200190815260200160002060008273ffffffffffffffffffffffffffffffffffffffff1673ffffffffffffffffffffffffffffffffffffffff16815260200190815260200160002060009054906101000a900460ff16610fef57600160008373ffffffffffffffffffffffffffffffffffffffff1673ffffffffffffffffffffffffffffffffffffffff168152602001908152602001600020819080600181540180825580915050600190039060005260206000200160009091909190916101000a81548173ffffffffffffffffffffffffffffffffffffffff021916908373ffffffffffffffffffffffffffffffffffffffff1602179055506001600260008473ffffffffffffffffffffffffffffffffffffffff1673ffffffffffffffffffffffffffffffffffffffff16815260200190815260200160002060008373ffffffffffffffffffffffffffffffffffffffff1673ffffffffffffffffffffffffffffffffffffffff16815260200190815260200160002060006101000a81548160ff0219169083151502179055508073ffffffffffffffffffffffffffffffffffffffff168273ffffffffffffffffffffffffffffffffffffffff167f991da500dc9f910ce2a64c3d13783d3f75d912d123ae2d8334ad0a817c91f23b60405160405180910390a35b5050565b6040518060800160405280600073ffffffffffffffffffffffffffffffffffffffff168152602001600073ffffffffffffffffffffffffffffffffffffffff16815260200160608152602001600081525090565b600080fd5b600080fd5b600073ffffffffffffffffffffffffffffffffffffffff82169050919050565b600061107c82611051565b9050919050565b61108c81611071565b811461109757600080fd5b50565b6000813590506110a981611083565b92915050565b6000602082840312156110c5576110c4611047565b5b60006110d38482850161109a565b91505092915050565b600081519050919050565b600082825260208201905092915050565b6000819050602082019050919050565b61111181611071565b82525050565b600081519050919050565b600082825260208201905092915050565b60005b83811015611151578082015181840152602081019050611136565b60008484015250505050565b6000601f19601f8301169050919050565b600061117982611117565b6111838185611122565b9350611193818560208601611133565b61119c8161115d565b840191505092915050565b6000819050919050565b6111ba816111a7565b82525050565b60006080830160008301516111d86000860182611108565b5060208301516111eb6020860182611108565b5060408301518482036040860152611203828261116e565b915050606083015161121860608601826111b1565b508091505092915050565b600061122f83836111c0565b905092915050565b6000602082019050919050565b600061124f826110dc565b61125981856110e7565b93508360208202850161126b856110f8565b8060005b858110156112a757848403895281516112888582611223565b945061129383611237565b925060208a0199505060018101905061126f565b50829750879550505050505092915050565b600060208201905081810360008301526112d38184611244565b905092915050565b600081519050919050565b600082825260208201905092915050565b6000819050602082019050919050565b60006113138383611108565b60208301905092915050565b6000602082019050919050565b6000611337826112db565b61134181856112e6565b935061134c836112f7565b8060005b8381101561137d5781516113648882611307565b975061136f8361131f565b925050600181019050611350565b5085935050505092915050565b600060208201905081810360008301526113a4818461132c565b905092915050565b600080fd5b600080fd5b600080fd5b60008083601f8401126113d1576113d06113ac565b5b8235905067ffffffffffffffff8111156113ee576113ed6113b1565b5b60208301915083600182028301111561140a576114096113b6565b5b9250929050565b60008060006040848603121561142a57611429611047565b5b60006114388682870161109a565b935050602084013567ffffffffffffffff8111156114595761145861104c565b5b611465868287016113bb565b92509250509250925092565b7f4e487b7100000000000000000000000000000000000000000000000000000000600052603260045260246000fd5b7f4e487b7100000000000000000000000000000000000000000000000000000000600052601160045260246000fd5b60006114da826111a7565b91507fffffffffffffffffffffffffffffffffffffffffffffffffffffffffffffffff820361150c5761150b6114a0565b5b600182019050919050565b7f4e487b7100000000000000000000000000000000000000000000000000000000600052604160045260246000fd5b7f4e487b7100000000000000000000000000000000000000000000000000000000600052602260045260246000fd5b6000600282049050600182168061158d57607f821691505b6020821081036115a05761159f611546565b5b50919050565b600082825260208201905092915050565b7f496e76616c696420726563697069656e74000000000000000000000000000000600082015250565b60006115ed6011836115a6565b91506115f8826115b7565b602082019050919050565b6000602082019050818103600083015261161c816115e0565b9050919050565b7f456d707479206d65737361676500000000000000000000000000000000000000600082015250565b6000611659600d836115a6565b915061166482611623565b602082019050919050565b600060208201905081810360008301526116888161164c565b9050919050565b60008190508160005260206000209050919050565b60006020601f8301049050919050565b600082821b905092915050565b6000600883026116f17fffffffffffffffffffffffffffffffffffffffffffffffffffffffffffffffff826116b4565b6116fb86836116b4565b95508019841693508086168417925050509392505050565b6000819050919050565b600061173861173361172e846111a7565b611713565b6111a7565b9050919050565b6000819050919050565b6117528361171d565b61176661175e8261173f565b8484546116c1565b825550505050565b600090565b61177b61176e565b611786818484611749565b505050565b5b818110156117aa5761179f600082611773565b60018101905061178c565b5050565b601f8211156117ef576117c08161168f565b6117c9846116a4565b810160208510156117d8578190505b6117ec6117e4856116a4565b83018261178b565b50505b505050565b600082821c905092915050565b6000611812600019846008026117f4565b1980831691505092915050565b600061182b8383611801565b9150826002028217905092915050565b61184482611117565b67ffffffffffffffff81111561185d5761185c611517565b5b6118678254611575565b6118728282856117ae565b600060209050601f8311600181146118a55760008415611893578287015190505b61189d858261181f565b865550611905565b601f1984166118b38661168f565b60005b828110156118db578489015182556001820191506020850194506020810190506118b6565b868310156118f857848901516118f4601f891682611801565b8355505b6001600288020188555050505b505050505050565b611916816111a7565b82525050565b6000604082019050611931600083018561190d565b61193e602083018461190d565b9392505050565b60008160601b9050919050565b600061195d82611945565b9050919050565b600061196f82611952565b9050919050565b61198761198282611071565b611964565b82525050565b60006119998285611976565b6014820191506119a98284611976565b601482019150819050939250505056fea2646970667358221220d3273d8f193a07d0cefb79ce6aedb96029e4cf97985d109e465b66b35f49a87e64736f6c634300081c0033",
  "linkReferences": {},
  "deployedLinkReferences": {}
}